:100003002020202020205377616D69205372696A74
:100013006920202000205465786D657820496E732F
:100023007472756D656E747320002020202020414A
:10003300686D6564616261642020202020200020B7
:100043002020204D2D2039343237353533373138A0
:100053002020200053544F50004155544F004D4130
:100063004E20002055502000444F574E00434C4F24
:100073005345004F50454E2000204A502041737392
:10008300736F6369617465732000444F4F523A0084
:100093004D4F44450043414C4C3A2D004C49465486
:0A00A3003A2D005249545A3A2D003C
:10018400759850438920758DDDD28ED2991201392C
:10019400C2907F107E271201B0D2907F107E27126A
:0401A40001B080EC3A
:0801A8008F80D2A67F0A7E00C1
:1001B000E4FDFCC3ED9FEE6480F8EC64809850078A
:0701C0000DBD00010C80ECF5
:0101C7002215
:100139007F381201F77F0C1201F77F101201F77F48
:10014900061201F77F011201F71201017FE87E0310
:060159001201B00200AD2E
:100101007F801201F77BFF7A00790312015F7FC0C4
:100111001201F77BFF7A00791812015F7F941201B7
:10012100F77BFF7A00792D12015F7FD41201F77BF3
:08013100FF7A00794202015F30
:1000AD007F011201F77BFF7A00797C12015F7FC01F
:1000BD001201F77BFF7A00798D12015F7FCF12015C
:1000CD00F77BFF7A00799312015F7F941201F77B22
:1000DD00FF7A00799F12015F7FD41201F77BFF7ABF
:1000ED0000799812015F7FE31201F77BFF7A0079A7
:0400FD00A602015FF7
:10015F008B088A09890AAB08AA09A90A1201C86083
:10016F0013050AE50A7002050914F91201C8FF12F6
:05017F0001ED80E22209
:0A01ED00D2A71201A8C2A60201B0B9
:0A01F700C2A71201A8C2A60201B0BF
:030000000201E119
:0C01E100787FE4F6D8FD75810A020184E5
:1001C800BB010689828A83E0225002E722BBFE0235
:0901D800E32289828A83E4932268
:00000001FF
